:030000000200C03B
:0C00C000787FE4F6D8FD75810A02000389
:100003001200D81200DD1200ADE4F50AE50AB401CE
:10001300FBC2AF1200CC120026D2AFE4F50A80EC8B
:0300230002009741
:07009700C0D075D000C007C6
:0A009E00AF99BF6F03750A01C29805
:0500A800D007D0D032AA
:1000AD00759850758920758DFD758BFDD2ACD2AFCD
:0300BD00D28E22BE
:0500D800C294C2932256
:10002600D291C29275080075090F7F327E001200C8
:1000360079B293E509150970021508D3E50994000C
:10004600E508940050E4C291D29275080075090F34
:100056007F327E00120079B293E509150970021508
:1000660008D3E5099400E508940050E4C293C291D0
:02007600C29234
:010078002265
:10007900D3EF9400EE940040147D6E7C00ED1D706A
:0D008900011CED4C70F7EF1F70E61E80E3C8
:010096002247
:0300DD00D2A0228C
:0C00CC00C2A07F847E03120079D2A02223
:00000001FF
